:105C00003140005CB240805A5C013F4000000F937D
:105C100005242F839F4F525C001CFB233F40000054
:105C20000F9304241F83CF43001CFC233040365CB9
:105C30003040345C00133140005CB240805A5C015B
:105C4000F2432402F24322020343FE3F3040505C01
:025C5000FF3F14
:10FF8000305C305C305C305C305C305C305C305C11
:10FF9000305C305C305C305C305C305C305C305C01
:10FFA000305C305C305C305C305C305C305C305CF1
:10FFB000305C305C305C305C305C305C305C305CE1
:10FFC000305C305C305C305C305C305C305C305CD1
:10FFD000305C305C305C305C305C305C305C305CC1
:10FFE000305C305C305C305C305C305C305C305CB1
:10FFF000305C305C305C305C305C305C305C005CD1
:0400000300005C009D
:00000001FF
